{
  "_format": "hh-sol-artifact-1",
  "contractName": "Token",
  "sourceName": "contracts/Token.sol",
  "abi": [
    {
      "inputs": [],
      "stateMutability": "nonpayable",
      "type": "constructor"
    },
    {
      "anonymous": false,
      "inputs": [
        {
          "indexed": true,
          "internalType": "address",
          "name": "from",
          "type": "address"
        },
        {
          "indexed": true,
          "internalType": "address",
          "name": "to",
          "type": "address"
        },
        {
          "indexed": false,
          "internalType": "uint256",
          "name": "value",
          "type": "uint256"
        }
      ],
      "name": "Transfer",
      "type": "event"
    },
    {
      "inputs": [
        {
          "internalType": "address",
          "name": "account",
          "type": "address"
        }
      ],
      "name": "balanceOf",
      "outputs": [
        {
          "internalType": "uint256",
          "name": "",
          "type": "uint256"
        }
      ],
      "stateMutability": "view",
      "type": "function"
    },
    {
      "inputs": [],
      "name": "name",
      "outputs": [
        {
          "internalType": "string",
          "name": "",
          "type": "string"
        }
      ],
      "stateMutability": "view",
      "type": "function"
    },
    {
      "inputs": [],
      "name": "owner",
      "outputs": [
        {
          "internalType": "address",
          "name": "",
          "type": "address"
        }
      ],
      "stateMutability": "view",
      "type": "function"
    },
    {
      "inputs": [],
      "name": "symbol",
      "outputs": [
        {
          "internalType": "string",
          "name": "",
          "type": "string"
        }
      ],
      "stateMutability": "view",
      "type": "function"
    },
    {
      "inputs": [],
      "name": "totalSupply",
      "outputs": [
        {
          "internalType": "uint256",
          "name": "",
          "type": "uint256"
        }
      ],
      "stateMutability": "view",
      "type": "function"
    },
    {
      "inputs": [
        {
          "internalType": "address",
          "name": "to",
          "type": "address"
        },
        {
          "internalType": "uint256",
          "name": "amount",
          "type": "uint256"
        }
      ],
      "name": "transfer",
      "outputs": [],
      "stateMutability": "nonpayable",
      "type": "function"
    },
    {
      "inputs": [
        {
          "internalType": "uint256",
          "name": "amount",
          "type": "uint256"
        }
      ],
      "name": "withdraw",
      "outputs": [],
      "stateMutability": "nonpayable",
      "type": "function"
    }
  ],
  "bytecode": "0x60c0604052601060809081526f26bc902430b9323430ba102a37b5b2b760811b60a05260009061002f908261013f565b5060408051808201909152600381526213521560ea1b6020820152600190610057908261013f565b5069d3c21bcecceda100000060025534801561007257600080fd5b50600380546001600160a01b03191633908117909155600254600091825260046020526040909120556101fd565b634e487b7160e01b600052604160045260246000fd5b600181811c908216806100ca57607f821691505b6020821081036100ea57634e487b7160e01b600052602260045260246000fd5b50919050565b601f82111561013a57806000526020600020601f840160051c810160208510156101175750805b601f840160051c820191505b818110156101375760008155600101610123565b50505b505050565b81516001600160401b03811115610158576101586100a0565b61016c8161016684546100b6565b846100f0565b6020601f8211600181146101a057600083156101885750848201515b600019600385901b1c1916600184901b178455610137565b600084815260208120601f198516915b828110156101d057878501518255602094850194600190920191016101b0565b50848210156101ee5786840151600019600387901b60f8161c191681555b50505050600190811b01905550565b61059a8061020c6000396000f3fe608060405234801561001057600080fd5b506004361061007d5760003560e01c806370a082311161005b57806370a08231146100cc5780638da5cb5b146100f557806395d89b4114610120578063a9059cbb1461012857600080fd5b806306fdde031461008257806318160ddd146100a05780632e1a7d4d146100b7575b600080fd5b61008a61013b565b6040516100979190610419565b60405180910390f35b6100a960025481565b604051908152602001610097565b6100ca6100c5366004610467565b6101c9565b005b6100a96100da36600461049c565b6001600160a01b031660009081526004602052604090205490565b600354610108906001600160a01b031681565b6040516001600160a01b039091168152602001610097565b61008a610321565b6100ca6101363660046104be565b61032e565b60008054610148906104e8565b80601f0160208091040260200160405190810160405280929190818152602001828054610174906104e8565b80156101c15780601f10610196576101008083540402835291602001916101c1565b820191906000526020600020905b8154815290600101906020018083116101a457829003601f168201915b505050505081565b6003546001600160a01b031633146102285760405162461bcd60e51b815260206004820152601b60248201527f4f6e6c7920746865206f776e65722063616e207769746864726177000000000060448201526064015b60405180910390fd5b306000908152600460205260409020548111156102875760405162461bcd60e51b815260206004820181905260248201527f436f6e74726163742068617320696e73756666696369656e7420746f6b656e73604482015260640161021f565b30600090815260046020526040812080548392906102a6908490610538565b90915550506003546001600160a01b0316600090815260046020526040812080548392906102d5908490610551565b90915550506003546040518281526001600160a01b039091169030907fddf252ad1be2c89b69c2b068fc378daa952ba7f163c4a11628f55a4df523b3ef9060200160405180910390a350565b60018054610148906104e8565b336000908152600460205260409020548111156103845760405162461bcd60e51b8152602060048201526014602482015273496e73756666696369656e742062616c616e636560601b604482015260640161021f565b33600090815260046020526040812080548392906103a3908490610538565b90915550506001600160a01b038216600090815260046020526040812080548392906103d0908490610551565b90915550506040518181526001600160a01b0383169033907fddf252ad1be2c89b69c2b068fc378daa952ba7f163c4a11628f55a4df523b3ef9060200160405180910390a35050565b602081526000825180602084015260005b81811015610447576020818601810151604086840101520161042a565b506000604082850101526040601f19601f83011684010191505092915050565b60006020828403121561047957600080fd5b5035919050565b80356001600160a01b038116811461049757600080fd5b919050565b6000602082840312156104ae57600080fd5b6104b782610480565b9392505050565b600080604083850312156104d157600080fd5b6104da83610480565b946020939093013593505050565b600181811c908216806104fc57607f821691505b60208210810361051c57634e487b7160e01b600052602260045260246000fd5b50919050565b634e487b7160e01b600052601160045260246000fd5b8181038181111561054b5761054b610522565b92915050565b8082018082111561054b5761054b61052256fea2646970667358221220389823b9e679dfabaead26c8648c1871b8500a19ae66fbee1b3590483d94a09964736f6c634300081c0033",
  "linkReferences": {},
  "deployedLinkReferences": {}
}